:020000040800F2
:10000000B806002089010008FF0E00088F0E0008C6
:10001000FD0E00088F0200083F10000800000000DD
:10002000000000000000000000000000030F0008B6
:100030009102000800000000010F0008050F0008F1
:10004000A3010008A3010008A3010008A301000800
:10005000A3010008A3010008A3010008A3010008F0
:10006000A3010008A3010008A3010008A3010008E0
:10007000A3010008A3010008A3010008A3010008D0
:10008000A3010008A3010008A3010008A3010008C0
:10009000A3010008A3010008A3010008A3010008B0
:1000A000A30100085D0F0008A3010008A3010008D8
:1000B000A3010008A3010008A3010008A301000890
:1000C000A3010008A3010008A3010008A301000880
:1000D000A3010008A3010008A3010008A301000870
:1000E000A3010008A3010008A301000800F002F822
:1000F00000F03AF80AA090E8000C82448344AAF188
:100100000107DA4501D100F02FF8AFF2090EBAE885
:100110000F0013F0010F18BFFB1A43F0010318473B
:10012000EC0F00000C100000103A24BF78C878C112
:10013000FAD8520724BF30C830C144BF04680C60ED
:10014000704700000023002400250026103A28BF35
:1001500078C1FBD8520728BF30C148BF0B60704739
:100160001FB51FBD10B510BD00F058F81146FFF7C0
:10017000F7FF00F075FF00F076F803B4FFF7F2FF29
:1001800003BC00F07DF8000009488047094800479B
:10019000FEE7FEE7FEE7FEE7FEE7FEE7FEE7FEE737
:1001A000FEE7FEE704480549054A064B7047000094
:1001B000590F0008ED000008B8000020B806002024
:1001C000B8020020B80200204FF0000200B513462C
:1001D00094469646203922BFA0E80C50A0E80C5067
:1001E000B1F12001BFF4F7AF090728BFA0E80C5018
:1001F00048BF0CC05DF804EB890028BF40F8042B11
:1002000008BF704748BF20F8022B11F0804F18BF7D
:1002100000F8012B7047704770477047754600F033
:100220002BF8AE4605006946534620F00700854688
:1002300018B020B5FFF7B6FFBDE820404FF000062C
:100240004FF000074FF000084FF0000B21F00701BE
:10025000AC46ACE8C009ACE8C009ACE8C009ACE801
:10026000C0098D46704710B50446AFF300802046A4
:10027000BDE81040FFF781BF0048704758000020DC
:1002800001491820ABBEFEE7260002007047FEE7DA
:100290007047000070B5044600F004F90546601C84
:1002A00002D004480078044400F0FCF8401BA0424F
:1002B000FAD370BD000000202DE9F84FDFF8B891A7
:1002C000002409F1040A0AF1040B23460F270BF15D
:1002D000040EC9E00125A5402A40AA427DD1674EFF
:1002E000D1F804C0ACEB0608B44532D014DCBCF144
:1002F000030F3AD009DCBCF1000F2AD0BCF1010F8A
:100300001CD0BCF1020F31D11DE0BCF1110F17D090
:10031000BCF1120F2AD119E0B8F5881F19D006DCFC
:10032000B8F5803F15D0B8F5801F1FD111E0B8F5A2
:10033000001F0ED0B8F5041F18D10AE0CB6815E0F5
:10034000CB681B1D12E0CB6808330FE0CB680C3381
:100350000CE08B682BB1012B4FF0080303D04561F3
:1003600004E0042302E0056100E00023FF2A01D835
:10037000064601E000F104064FEA840501D9A5F123
:100380002005D6F8008007FA05FC28EA0C0803FAD5
:1003900005F548EA0508C6F800804D68ED0062D50D
:1003A000374DAE6946F00106AE61AD6924F0030633
:1003B00005F001050095334D06EB050CDCF80850FF
:1003C000A607360F07FA06F825EA0805DFF8B88011
:1003D000404503D14FF0000817E044E0DFF8AC805F
:1003E000404502D14FF001080FE0DFF8A4804045FE
:1003F00002D14FF0020808E0DFF89880404502D1B2
:100400004FF0030801E04FF0040808FA06F848EA44
:100410000508CCF808804D68D9F80060ED034D461A
:1004200001D5164300E096432E604D68DAF800606F
:10043000AD03554601D5164300E096432E604D6846
:10044000DBF80060ED025D4601D5164300E09643FF
:100450002E604D68DEF80060AD02754601D516438A
:1004600000E096432E60641C0D682A46E5407FF448
:1004700031AFBDE8F88F000000040140000011100A
:10048000001002400000014000080140000C014043
:1004900000100140001401400AB1016170470904D5
:1004A000FBE7000001488068704700000000002062
:1004B0000248816802781144816070470000002082
:1004C000074810B5016841F010010160032000F0F9
:1004D00075F80F2000F006F800F024F8002010BD99
:1004E0000020024070B50D4D04464FF47A71287813
:1004F000B1FBF0F00A490968B1FBF0F000F0CCFA6A
:1005000048B9102C07D200222146501E00F036F8C0
:1005100000206C6070BD012070BD00000000002054
:100520000C0000200C4808B5816941F0010181618F
:10053000816901F001010091C16941F08051C161FF
:10054000C06900F0805000900448416821F0E061EB
:1005500041F00071416008BD001002400000014000
:10056000002809DB00F01F020121914040098000B2
:1005700000F1E020C0F8001170470000F0B40E4B0D
:100580001B680C46C3F30223C3F10705042D00D9F1
:100590000425191D072901D2002300E0DB1E0126D6
:1005A00006FA05F1491E214099409E40761E1640EC
:1005B0003143F0BC00F044BD0CED00E0064900F012
:1005C000070208684FF6FF03184040EA0220034A7A
:1005D00010430860704700000CED00E00000FA05D1
:1005E0002DE9F0470F46050061D0434E306800F01A
:1005F0000700B84209D2306820F007003843306065
:10060000306800F00700B84251D128683B4C8107A0
:1006100012D5400703D5606840F4E0606060287838
:10062000000703D5606840F4605060606068A968A6
:1006300020F0F000084360602878C00728D0686880
:10064000012810D02168022810D0890700292EDA4D
:10065000616821F0030101436160FFF723FF8046D9
:1006600041F288390DE021688903EFE78901EDE760
:10067000FFF718FFA0EB0801494502D90320BDE8A8
:10068000F0876068696800F00C00B0EB810FEFD173
:10069000306800F00700B8420BD9306820F007003E
:1006A00038433060306800F00700B84201D00120C4
:1006B000E5E72878400705D56068E96820F4E06040
:1006C000084360602878000706D56068296920F42F
:1006D000605040EAC100606000F018F86168084AA4
:1006E000C1F30311515CC840064908600648006820
:1006F000FFF7F8FE0020C2E7002002400010024091
:10070000FC1000080C0000200400002012A185B09D
:100710000FC98DE80F0014A0144A006804905168B6
:10072000134801F00C03042B10D0082B0ED1C1F399
:100730008343C9031DF803000AD5516804AAC1F315
:100740004041515C0A4A5043B0FBF1F005B070479C
:1007500008494843FAE700000203040506070809B0
:100760000A0B0C0D0E0F10100102000000100240C9
:1007700000127A0000093D002DE9F84F040070D006
:100780002078C04DC00749D06868C0F381000128B7
:1007900007D06868C0F38100022809D16868C003E7
:1007A00006D52868800339D560680028E7D035E091
:1007B0006068B0F5803F0BD010B1B0F5A02F11D01C
:1007C000286820F480302860286820F4802002E027
:1007D000286840F480302860606890B1FFF762FEBE
:1007E00006460AE0286840F480202860F0E700BF51
:1007F000FFF758FE801B642873D828688003F7D55C
:100800000CE0FFF74FFE064605E000BFFFF74AFE8B
:10081000801B6428F0D828688003F7D420789A4E8B
:1008200080074FF001094FF0000839D5686810F0D3
:100830000C0F07D06868C0F38100022809D16868EE
:10084000C00306D42868800714D52069012808D180
:1008500010E02069B0B1C6F80090FFF723FE07460C
:1008600005E00AE1FFF71EFEC01B0228C4D8286875
:100870008007F7D52868616920F0F80040EAC100D8
:1008800028600DE0C6F80080FFF70CFE074604E084
:10089000FFF708FEC01B022823D828688007F7D47A
:1008A000207800072CD57948A169D9B1C0F800900B
:1008B000FFF7F8FD074604E0FFF7F4FDC01B022830
:1008C0000FD8686A8007F7D571484FF4FA5100686D
:1008D000B0FBF1F0009000BF0098411E0091FAD2E9
:1008E0000EE080E0C0F80080FFF7DCFD074604E082
:1008F000FFF7D8FDC01B022875D8686A8007F7D4B7
:100900002078400760D5E8690027C00008D4E8696E
:1009100040F08050E861E869012700F080500090C5
:100920005C480168C90513D40168834641F48071AD
:100930000160FFF7B7FD824606E000BFFFF7B2FD9A
:10094000A0EB0A0064284ED8DBF80000C005F5D5FE
:10095000E06801280AD008B1052813D0286A20F0E1
:1009600001002862286A20F0040002E0286A40F0B2
:1009700001002862E06841F2883B98B1FFF792FDE0
:1009800082460BE0286A40F004002862EEE700BFD0
:10099000FFF788FDA0EB0A0159455AD8286A80075D
:1009A000F6D50CE0FFF77EFD824605E0FFF77AFD05
:1009B000A0EB0A0159454CD8286A8007F6D41FB12C
:1009C000E86920F08050E861E06988B36968C1F3A4
:1009D0008101022944D00228C6F8608004D0FFF7C4
:1009E00061FD044638E034E0FFF75CFD074604E0B3
:1009F000FFF758FDC01B02282BD828688001F7D4C8
:100A0000206AB0F5803F05D16868A16820F4003005
:100A100008436860D4E908010843696821F4741147
:100A200008436860C6F86090FFF73CFD044606E0A6
:100A300025E000BFFFF736FD001B022809D8286813
:100A40008001F7D51BE000BFFFF72CFD001B02283B
:100A500002D90320BDE8F88F28688001F4D40EE0A5
:100A60000128F7D06868226A00F48031914204D1ED
:100A7000616A00F47010884201D00120EAE700208A
:100A8000E8E70000001002400000424280044242B9
:100A90000C0000200070004010B5401EB0F1807FB7
:100AA00001D3012010BD4FF0E02460610F216017D9
:100AB00000F0C6FA0020A06107202061002010BDD0
:100AC0007047704770B590F83C20012A26D0012469
:100AD00080F83C40022280F83D2003685A689D68F7
:100AE00022F070060A6832435A600D4B02689A423F
:100AF00008D0B2F1804F05D00A4B9A4202D00A4B7F
:100B00009A4204D1496825F080031943916080F826
:100B10003D40002180F83C10084670BD022070BDA9
:100B2000002C0140000400400008004010B5040003
:100B300003D094F83D0010B107E0012010BD002063
:100B400084F83C00204600F01FF8022084F83D00A5
:100B5000211D206800F008FA012084F8460084F87E
:100B60003E0084F83F0084F8400084F8410084F897
:100B7000420084F8430084F8440084F8450084F877
:100B80003D00002010BD000000B585B0002100919F
:100B90000191029103910068124988421FD11248C5
:100BA000816941F400618161816901F4006104910E
:100BB000816941F0040181618069694600F00400A7
:100BC00004904FF4805000900848FFF775FB002216
:100BD00011461920FFF7D2FC1920FFF7C1FC05B020
:100BE00000BD0000002C0140001002400008014040
:100BF00090F83D10012901D001207047022180F8B2
:100C00003D100168CA6842F00102CA6000680B49E1
:100C1000884208D0B0F1804F05D00949884202D0FF
:100C20000849884204D1816801F00701062903D0F0
:100C3000016841F00101016000207047002C014073
:100C4000000400400008004070B5044690F83C00E5
:100C5000012817D0012584F83C50022084F83D007B
:100C60002068826822F0770222F47F42826008685E
:100C7000502830D00DDC20284DD005DC98B310284A
:100C80003BD148E0022070BD302844D0402834D108
:100C900039E0602828D0702806D0B0F5805F2CD0CD
:100CA000B0F5005F29D10AE0CB68D1E901212068C5
:100CB00000F090F92068816841F0770109E0CB6885
:100CC000D1E90121206800F085F92068816841F4AC
:100CD0008041816011E0CA684968206800F08CF9A1
:100CE0005021206807E016E0CA684968206800F0D3
:100CF00094F96021206800F077F984F83D500020D5
:100D000084F83C0070BDCA684968206800F074F936
:100D100040212068EFE7226801461046EBE7704764
:100D200070B50446006801694FF00005C9438907A2
:100D300015D4C168C943890711D4E91E0161012096
:100D40002077206880698007204602D0FFF7E7FF00
:100D500004E000F098F8204600F096F82577206827
:100D60000169C943490717D4C168C943490713D466
:100D70006FF004010161022020772068806910F47F
:100D8000407F204602D0FFF7CAFF04E000F07BF866
:100D9000204600F079F8257720680169C9430907E2
:100DA00016D4C168C943090712D46FF00801016164
:100DB000042020772068C0698007204602D0FFF712
:100DC000AEFF04E000F05FF8204600F05DF8257704
:100DD00020680169C943C90617D4C168C943C90657
:100DE00013D46FF010010161082020772068C069DA
:100DF00010F4407F204602D0FFF791FF04E000F09E
:100E000042F8204600F040F8257720680169C94380
:100E1000C90708D1C168C943C90704D1891E016146
:100E2000204600F032F820680169C943090609D458
:100E3000C168C943090605D46FF0800101612046ED
:100E4000FFF73EFE20680169C943490609D4C1681D
:100E5000C943490605D46FF040010161204600F006
:100E600015F820680169C94389060BD4C168C943D4
:100E7000890607D46FF0200101612046BDE870406B
:100E8000FFF71FBE70BD7047704770477047FEE7A1
:100E900010B586B00024184800940194029403947D
:100EA000049414490594C0E900140A21C0E90241E0
:100EB000046144618461FFF739FE08B172B6FEE750
:100EC0004FF40050CDE900040F20CDE902406946FF
:100ED0000948FFF7B9FE08B172B6FEE7049404A909
:100EE00005480594FFF7EEFD002801D072B6FEE735
:100EF00006B010BD002C014010000020FEE7FEE708
:100F000070477047FFF7D4BA10B590B028216846F3
:100F1000FFF75AF914210AA8FFF756F902200090AA
:100F20000120049010200024059007946846FFF7E4
:100F300023FC08B172B6FEE70F20CDE90A040C9439
:100F40000D9400210AA80E94FFF74AFB002801D057
:100F500072B6FEE710B010BD704700000148FFF701
:100F6000DFBE000010000020F0B50268164B174CE1
:100F7000174D4FF08047984205D0B84203D0A042A9
:100F800001D0A84203D122F070064A683243984249
:100F900005D0B84203D0A04201D0A84203D122F428
:100FA0004074CA6822434C6922F0800222430260E6
:100FB0008A68C2620A688262984201D10969016343
:100FC00001214161F0BD0000002C014000040040FF
:100FD0000008004010B5846842EA032224F47F44EC
:100FE0000A432243826010BD826822F070020A43E5
:100FF00042F007018160704710B5036A046A24F06B
:1010000001040462846924F0F00444EA021423F029
:101010000A020A438461026210BD10B5036A23F01C
:10102000100303628369046A23F4704343EA0232C3
:1010300024F0A00343EA01118261016210BDFEE7C2
:101040000907090E002804DB00F1E02080F80014F5
:10105000704700F00F0000F1E02080F8141D704789
:1010600086B0FFF72DFAFFF74FFF002420480094C9
:10107000019402940394816941F0200181618169A6
:1010800001F020010491816941F0040181618069CE
:10109000184E00F004000490002220213046FFF793
:1010A000FBF9202000900120CDE9010402200390EB
:1010B00069463046FFF700F9FFF7EAFE0E48FFF7F2
:1010C00097FD0D4D2868406A3446002220212046B5
:1010D000FFF7E2F93220FFF7DDF801222021204658
:1010E000FFF7DAF93220FFF7D5F82868406AECE715
:1010F0000010024000080140100000200000000025
:101100000000000001020304060708092C11000872
:101110000000002010000000280100083C11000819
:1011200010000020A8060000440100080100000093
:0C11300010000000000000000024F4008B
:04000005080000ED02
:00000001FF
